S3250800000000A0002071430008F5510008F7510008F9510008FB510008FD51000800000000BC
S32508000020000000000000000000000000FF5100080152000800000000035200080552000843
S32508000040CD430008CF430008D1430008D3430008D5430008D743000829520008DB4300083B
S32508000060DD430008DF430008E1430008E3430008E5430008E7430008E9430008EB430008FA
S32508000080ED430008EF430008F1430008F3430008A9520008F7430008F9430008FB43000897
S325080000a0FD430008FF43000801440008034400080544000807440008094400080B440008B4
S325080000c00D4400080F44000811440008134400081544000817440008194400081B44000812
S325080000e01D4400081F440008B1520008234400082544000827440008294400082B440008D4
S325080001000000000000000000000000002D4400082F44000831440008334400083544000860
S3250800012037440008394400083B4400083D4400083F44000841440008000000000000000081
S325080001404344000845440008474400080000000000000000000000000000000000000000DE
S325080001600000000000000000494400084B4400084D440008000000000000000000000000AC
S32508000180000000004F44000810B5054C237833B9044B13B10448AFF300800123237010BD14
S325080001a0C001002000000000F89E000808B5034B1BB103490348AFF3008008BD000000005D
S325080001c0C4010020F89E0008154B002B08BF134B9D46A3F5803A00218B460F461348144AA9
S325080001e0121A05F0C1FC0F4B002B00D098470E4B002B00D098470020002104000D000D4805
S32508000200002802D00C48AFF3008005F089FC2000290000F04DFB05F06FFC00BF000008003E
S3250800022000A000200000000000000000C001002002030020000000000000000000B583B002
S325080002400023019300932C4A136843F480331360294B1B6803F400330093019B01330193E0
S32508000260009B1BB9019BB3F5A04FF1D1224B1B6813F4003F07D001230093009B012B05D0AC
S3250800028003B05DF804FB00230093F6E71B4B10221A60A3F580535A6842F080025A605A6847
S325080002a05A605A685A605A6822F47C125A605A6842F480325A601A6842F080721A600E4BFD
S325080002c01B6813F0007FFAD00B4B5A6822F003025A605A6842F001025A60074B5B6803F09F
S325080002e00C03042BF9D14FF4907001F011FB4FF0805001F085FBC3E70010024000200240CA
S3250800030010B5174CD4F8883043F47003C4F88830144B1A6842F001021A605968124A0A400E
S325080003205A601A6822F0847222F480321A601A6822F480221A605A6822F4FE025A60DA6A9F
S3250800034022F00F02DA62196B084A0A401A6300229A60FFF773FF4FF00063A36010BD00BFDE
S3250800036000ED00E0001002400CC07FF8CCFC00FF0649074A074B9A42BEBF51F8040B42F869
S32508000380040BF8E70448804704480047049F000800000020C001002001430008C9410008B1
S325080003a02B492C4A002301E041F8043B9142FBD305F0B6FB00F07CFAFEE7FEE7FEE7FEE788
S325080003c0FEE7FEE7FEE7FEE7FEE7FEE7FEE7FEE7FEE7FEE7FEE7FEE7FEE7FEE7FEE7FEE7BF
S325080003e0FEE7FEE7FEE7FEE7FEE7FEE7FEE7FEE7FEE7FEE7FEE7FEE7FEE7FEE7FEE7FEE79F
S32508000400FEE7FEE7FEE7FEE7FEE7FEE7FEE7FEE7FEE7FEE7FEE7FEE7FEE7FEE7FEE7FEE77E
S32508000420FEE7FEE7FEE7FEE7FEE7FEE7FEE7FEE7FEE7FEE7FEE7FEE7FEE7FEE7FEE7FEE75E
S32508000440FEE7FEE7FEE7FEE7FEE7FEE7FEE7FEE7C00100200203002008B502F0C1F802F006
S325080004600BF902F04BF901F031FC044B1B68052B03D0034B1B68002BF7D108BD3402002062
S325080004800400002030B585B008238DF8083000248DF8094007238DF80A3030238DF80B303A
S325080004a08DF80C408DF80D4010258DF80E5002A801F0BEFD8DF804408DF8054001A801F0F0
S325080004c007FE284601F01FFE05B030BD10B586B0044600230493ADF814300293ADF80C308D
S325080004e006A800F8113D0122232101F0CFFD0622282104A801F0CAFD9DF8073013F0400FE3
S325080005001FD000222FE05300591C06A8014411F8080C06A90B4413F8081C01EB002123F880
S32508000520101C0132022AEEDD9DF8073003F03003102B1BD0202B1CD0F3B1DFED1B6A0023F0
S325080005402DE00022EEE7530006A9194411F8080C01330DF1180C634413F8083C03EB0023B0
S3250800056021F8103C0132022AEDDDDDE7DFED0F6AE5E7DFED0F6AE2E7DFED0E6ADFE706AA42
S3250800058002EB430232F9102C07EE902AF8EEE77A04EB830287EEA67A82ED007A0133022B6B
S325080005a0EDDD06B010BD00BF00000000549264425C8F6441EC91E44210B584B000248DF8C0
S325080005c00C4014238DF80D30E0238DF80F308DF80E4003A801F0FEFE8DF8044040238DF8E5
S325080005e0053007238DF806308DF80A408DF808408DF8094008238DF8073001A801F0BCFE2E
S3250800060080238DF8003010238DF801308DF802408DF80340684601F0A7FF04B010BD000036
S3250800062030B587B00446022303AA2321322001F005FF062301AA2821322001F0FFFE9DF8F7
S325080006400D3013F0400308D040209DF80C2012F0400F30D08BBB002145E01020F5E75100D6
S325080006604B1C06AD2B4413F8143C1B02294411F8145C05FA83F393FBF0F321F8083C01320F
S32508000680D2B2022AEBD9022303AA2321322001F0D5FE9DF80D3013F0400F2DD19DF80C30B9
S325080006a003F03003202B21D0302B22D0102B27D0F7EE006A22E00022E3E70022E1E74A00DA
S325080006c006AB9D1815F8143C1B0201320DF1180C624412F8142C02FA83F393FBF0F325F8E7
S325080006e0083C0131C9B20229E9D9CCE7F5EE006A04E0DFED0F6A01E0F5EE006A002313E0A1
S32508000700F6EE006AFAE706AA02EB430232F9082C07EE902AF8EEE77A04EB830287EEA67A5C
S3250800072082ED007A0133DBB2022BECD907B030BD9FCDAA3D70B582B0044602AA002302F8AE
S32508000740013D012319463C2001F078FE494D01232A4603213C2001F071FE0123EA180421B2
S325080007603C2001F06BFE0123AA1C07213C2001F065FE0123EA1C08213C2001F05FFE0123D2
S325080007802A1D05213C2001F059FE01236A1D06213C2001F053FE9DF8073003F0E003802B7D
S325080007a020D00AD8402B13D0602B16D0202B27D0002606EE106A002342E0C02B17D0E02BA2
S325080007c01AD0A02BF4D140F263169FED2B6AF2E74FF43E769FED296AEDE74FF416769FEDA7
S325080007e0286AE8E74FF4C8769FED266AE3E740F227169FED256ADEE7CD269FED246ADAE706
S325080008004FF475769FED226AD5E75800194D15F8131001302A5C02EB012211B24FF47A7221
S3250800082002FB01F207EE902AF8EEE77A04EB8302F8EEC66A87EEA67A82ED007A0133DBB2FB
S32508000840012BE2D90B490A794B7903EB02231AB24FF47A7303FB02F307EE903AF8EEE77A00
S3250800086007EE106AB8EEC77AC7EE876AC4ED026A02B070BD1C020020900100005703000049
S325080008809E020000C20100004A010000E60000004C04000082B00190019A044B1A60034BF1
S325080008a01B68002BFBD102B0704700BF1002002030B583B0AA4C204600F044FE6368A94AF2
S325080008c0A2FB03235B09013BB3F1807F09D2A64A5360A64BF02183F8231000239360072396
S325080008e01360002001F00EFA012001F00BFA022001F008FA032001F005FA042001F002FA0E
S32508000900052001F0FFF9062001F0FCF9072001F0F9F90121002001F041FAFFF79DFD944BC8
S3250800092000221A60002001F01FFA032001F01CFA042001F019FA012001F016FA072001F057
S3250800094013FA052001F010FA062001F00DFA022001F00AFA2FE0002001F012FA0520FFF7E0
S3250800096099FF022001F00CFA0520FFF793FF042001F006FA0520FFF78DFF062001F000FA3E
S325080009800520FFF787FF072001F0FAF90520FFF781FF052001F0F4F90520FFF77BFF032047
S325080009a001F0EEF90520FFF775FF012001F0E8F90520FFF76FFF6E4B1B68002BCBD0002024
S325080009c06C4B187001F0D0F9032001F0CDF9042001F0CAF9012001F0C7F9072001F0C4F9B7
S325080009e0052001F0C1F9062001F0BEF9022001F0BBF9FFF747FD22E0072001F0A9F970E03E
S32508000a0007EE903AF8EEE77AB9EE047AF4EEC77AF1EE10FA7DD4584BD3ED017AFDEEE77A16
S32508000a20CDED017A9DF9043007EE903AF8EEE77AB1EE047AF4EEC77AF1EE10FA6DDC4C4B9A
S32508000a401B68012B6DD14B4B1B78DBB2052BFAD10020484B187001F087F9032001F084F9AD
S32508000a60042001F081F9012001F07EF9072001F07BF9052001F078F9062001F075F9022096
S32508000a8001F072F93C4C2046FFF720FDD4ED007AFDEEE77ACDED017A9DF9042082EAE270B7
S32508000aa0A0EBE270C0B2354B1870D4ED017AFDEEE77ACDED017A9DF9043083EAE371A1EBFD
S32508000ac0E371C9B22E4C2170884299D907EE902AF8EEE77AB1EE047AF4EEC77AF1EE10FAD3
S32508000ae08ADC254BD3ED007AFDEEE77ACDED017A9DF9043007EE903AF8EEE77AB9EE047A62
S32508000b00F4EEC77AF1EE10FA99D5002001F020F995E7032001F01CF97DE7042001F018F9F4
S32508000b208DE70024134B1C70012001F01DF9204601F01AF9032001F017F9042001F014F94D
S32508000b40072001F011F9052001F00EF9062001F00BF9022001F008F9FFF72EFD0BE300BF4B
S32508000b60540200201F85EB5110E000E000ED00E014020020F4010020E80100203C020020C2
S32508000b8018020020B24A02EB8302D2ED006A9FEDB17AC6EE877AC2ED007A0133DBB2022BF3
S32508000ba0F0D9AB4CD4ED007A67EEA77A94ED017A27EE077A77EE877A94ED027A27EE077A2B
S32508000bc077EE877A17EE900A04F038FC41EC100B03F08EFD51EC100B04F038FF06EE900A03
S32508000be09D4D286094ED017AB1EE477AC7EE267A9A4BC3ED007A67EEA77A17EE900A04F0AC
S32508000c001DFC02460B460020954904F0B7FA41EC100B03F06DFD51EC100B04F017FF914B8E
S32508000c201860D4ED006A95ED007AC6EE877A8E4BC3ED007A67EEA77A17EE900A04F0FEFB4D
S32508000c4002460B460020864904F098FA41EC100B03F04EFD51EC100B04F0F8FE834B18606A
S32508000c60D4ED027AF5EEC07AF1EE10FA00F1C4807C4B186804F0E2FB41EC100B03F0DCFCC3
S32508000c8000227B4B51EC100B04F030FC6EA3D3E9002304F055FD04F0D9FE764B18606F4BF2
S32508000ca0D3ED007AF5EEC07AF1EE10FA00F1B2806E4B186804F0C2FB41EC100B03F0BCFCE6
S32508000cc000226B4B51EC100B04F010FC5EA3D3E9002304F035FD04F0B9FE674B1860624B4E
S32508000ce093ED007AB5EEC07AF1EE10FA00F19A80624BD3ED017A5B4AD2ED006A27EEA60AA0
S32508000d009FED5F6A30EE060A93ED026A534AD2ED005A26EE255A30EE050A5A4A82ED000AC3
S32508000d20D3ED000A514B93ED005A60EE850A67EEA57A67EE277A70EEA70A66EE866A27EEB6
S32508000d40267A70EEC70A504BC3ED000A03F02CFDDFED4E7A20EE270A9FED4D7AC0EE077AF0
S32508000d604C4BC3ED007AD3ED007AF5EEC07AF1EE10FA5FD43F4BD3ED007AF0EEE77A9FEDA2
S32508000d80467AF4EEC77AF1EE10FA00F2D9813A4BD3ED007AF0EEE77AF4EEC77AF1EE10FA23
S32508000da000F2CE813B4B93ED007AF3EE097AB4EEE77AF1EE10FA73D5D3ED007AF5EEC07A75
S32508000dc0F1EE10FA6CDB072000F0C2FF002000F0CBFF032000F0C8FF042000F0C5FF012050
S32508000de000F0C2FF052000F0BFFF062000F0BCFF022000F0B9FFBEE107EE900AF1EE677AD8
S32508000e00C3ED007A174BD3ED007AF1EE677AC3ED007A2DE707EE900AF1EE677A154BC3EDA1
S32508000e20007A45E707EE900AF1EE677A124BC3ED007A5DE7D3ED007A9FED187A77EE877A26
S32508000e40C3ED007A96E700BF00000060FB210940DC0100200000C842500200204802002076
S32508000e600000F03F400200204C02002024020020008066400C02002008020020FC01002084
S32508000e8000000000280200204402002000003443DB0F4940F8010020000020420000B44338
S32508000ea0BF4B93ED007ADFEDBF7AB4EEE77AF1EE10FA09DB93ED007ADFEDBB7AB4EEE77A4D
S32508000ec0F1EE10FA7FF67FAFB54B93ED007ADFEDB77AB4EEE77AF1EE10FA09D593ED007ABD
S32508000ee0F3EE097AB4EEE77AF1EE10FA80F29280AB4B93ED007ADFEDAE7AB4EEE77AF1EE4A
S32508000f0010FA09D593ED007ADFEDA87AB4EEE77AF1EE10FA80F29780A14B93ED007ADFEDCC
S32508000f20A57AB4EEE77AF1EE10FA09D593ED007ADFED9F7AB4EEE77AF1EE10FA80F29C8061
S32508000f40974B93ED007ADFED9C7AB4EEE77AF1EE10FA09D593ED007ADFED967AB4EEE77A22
S32508000f60F1EE10FA80F2A1808D4B93ED007ADFED937AB4EEE77AF1EE10FA09D593ED007A78
S32508000f80DFED8D7AB4EEE77AF1EE10FA80F2A680834B93ED007ADFED8A7AB4EEE77AF1EE72
S32508000fa010FA09D593ED007ADFED847AB4EEE77AF1EE10FA80F2AB80794B93ED007ADFED64
S32508000fc0797AB4EEE77AF1EE10FA40F1D48093ED007ADFED7B7AB4EEE77AF1EE10FAC0F246
S32508000fe0CA80052000F0B4FE032000F0BDFE072000F0BAFE042000F0B7FE062000F0B4FEA4
S32508001000002000F0B1FE012000F0AEFE022000F0ABFEB0E0062000F09BFE032000F0A4FE97
S32508001020072000F0A1FE002000F09EFE052000F09BFE022000F098FE012000F095FE042022
S3250800104000F092FE97E0042000F082FE002000F08BFE012000F088FE062000F085FE072007
S3250800106000F082FE052000F07FFE032000F07CFE022000F079FE7EE0022000F069FE032050
S3250800108000F072FE072000F06FFE052000F06CFE062000F069FE042000F066FE012000F0D9
S325080010a063FE002000F060FE65E0002000F050FE032000F059FE012000F056FE052000F0CC
S325080010c053FE062000F050FE022000F04DFE072000F04AFE042000F047FE4CE0012000F0FB
S325080010e037FE032000F040FE072000F03DFE052000F03AFE062000F037FE022000F034FE2E
S32508001100002000F031FE042000F02EFE33E0032000F01EFE062000F027FE072000F024FE8C
S32508001120052000F021FE002000F01EFE022000F01BFE012000F018FE042000F015FE1AE0CE
S32508001140042000F01DFE032000F01AFE072000F017FE052000F014FE062000F011FE00208F
S3250800116000F00EFE012000F00BFE022000F008FE0520FFF78FFB134B1B68022B7FF4D2AB90
S32508001180114B1B78DBB2052BFAD100240E4B1C700E48FFF7CFFA0E48FFF742FA2346FEE4D9
S325080011a0F80100200000AA430000B44300008C420000E6420000204300004D4300007A437E
S325080011c00080934314020020F4010020FC010020DC010020034B1B681BB1024A1368013BA6
S325080011e013607047100200200020704700207047FEE7FEE77047FEE7FEE7FEE7FEE770470B
S325080012007047704708B5FFF7E5FF054A1368013B1360044A13780133DBB2137008BD00BFA1
S3250800122004000020F401002008B5002000F0FAF8012800D008BD002000F0F0FD0028F9D0FC
S32508001240164B00221A6003E0144A136801331360124B1A68124B9A42F6D9002000F0DEFD4E
S325080012600028FAD10D4B00221A6003E00B4A136801331360094B1A68094B9A42F6D9094BF6
S325080012801A6801321A601B68022B02D9054B00221A60002000F0F8F8CCE700BF2C020020DA
S325080012a0FEFF07001402002008B501F07BFA08BD08B5002001F042FC122000F0E5F808BD2E
S325080012c038B5044603790BB1042B67D16379082B03D00C2B01D0102B65D12368232B67D8B7
S325080012e0A379012B69D8A379002B00F0828021684B0903F1007303F502635B01186801F0B0
S325080013001F01012202FA01F120EA01011960236823F01F054048295803F01F0302FA03F337
S3250800132021EA03032B502379216821F01F00034403F1804303F58233186801F01F0102FA86
S3250800134001F101431960236823F01F053348295803F01F0302FA03F321EA03032B502368F4
S3250800136023F01F050430295803F01F039A4021EA02022A506379102B24D0226822F01F0134
S325080013800B4403F1804303F58233196802F01F02012000FA02F20A431A603CE09F212048DE
S325080013a0FFF726FF92E7A0211D48FFF721FF94E7A1211B48FFF71CFF92E7A2211848FFF70C
S325080013c017FF90E7236823F01F050438295803F01F03012202FA03F30B432B50236823F062
S325080013e01F040430215803F01F039A400A43225011E02379226822F01F010B4403F1804312
S3250800140003F58233196802F01F02012000FA02F221EA02021A6038BD04040140080401405A
S32508001420909B000810B50446162809D91D2807D01E2805D01F2803D0202801D0212814D1A4
S32508001440620902F1007303F502635B01196804F01F04012303FA04F421405201084BD35811
S325080014601C4208D049B9002006E04FF499710548FFF7BEFEE4E7002010BD0120FCE700BF59
S3250800148014040140909B000810B50446162803D9A0F11D03042B08D804F01F0224F01F047D
S325080014a001239340044AA35010BD40F24B110348FFF79EFEF0E700BF14040140909B00088C
S325080014c010B50446012805D9052803D0EF210448FFF78EFE034B00221A701C7010BD00BFF8
S325080014e0E09B00080210024010B50446012804D940F2C9110248FFF77BFE024B1C6010BD97
S32508001500E09B00086000424210B50446022806D8064A536823F003031C43546010BD40F209
S32508001520AE210348FFF764FEF2E700BF00100240E09B0008024B586800F00C00704700BF3F
S32508001540001002402DE9F041A9494B6803F00C034A684968C2F38342023211F4803F0AD18D
S32508001560A44901FB02F2042B44D0082B45D06BB1A14B03600CE09E49C96A01F00F01013151
S325080015809D4CB4FBF1F102FB01F2ECE79A4B0360974D6B68C3F30313DFF860C21CF80360C5
S325080015a0F6B2016821FA06F343606C68C4F302241CF80440E4B223FA04F484606F68C7F32C
S325080015c0C2271CF80770FFB2FB40C360ED6A2D0905F00F0EDFF828C23CF81EC01FFA8CFC67
S325080015e015F0100F0BD0BCF1000F08D0B2FBFCF5056105E0804B0360CAE70260C8E701610F
S325080016007B4DED6A6D0A05F01F0E05F00F08DFF8F0C13CF818C01FFA8CFC15F0100F06D0C9
S32508001620BCF1000F03D0B2FBFCF5456100E041616F4D2D6B15F0100F40F0A1806E4D8561DD
S325080016406B4D2D6B15F0200F40F09B806A4DC561674D2D6B15F0400F40F09580664D0562D1
S32508001660634D2D6B15F4807F02D0914200F08D804362624D15F80E50EDB2DFF874C1DCF82C
S3250800168030C01CF0807F02D0914200F084800463DFF85CC1DCF830C01CF0007F02D0914259
S325080016a000F081804463524D2D6B15F4805F01D091427ED083624E4D2D6B15F4007F01D002
S325080016c091427CD0C3624A4D2D6B15F4806F01D0914279D0C364464D2D6B15F4006F01D009
S325080016e0914276D00365424D2D6B15F4005F01D0914273D003653E4D2D6B15F4004F01D031
S32508001700914270D083653A4A126B12F0030F79D18363374B1B6B13F4403F40F08F80C46387
S32508001720334B1B6B13F4402F40F0A7800464304B1B6B13F4401F40F0BF8044642C4B1B6BE7
S3250800174013F4400F00F0D780294B1B6B03F44003B3F5800F00F0D280254B1B6B03F4400301
S32508001760B3F5000F00F0CC80214B1B6B03F44003B3F5400F40F0C0801F4B8364BCE0816106
S325080017805EE7C16164E701626AE7BE427FF470AF550045626DE7AE427FF479AF4FEA420CE1
S325080017a0C0F830C074E7AE427FF47CAF5500456379E7BE427FF47EAF550085627BE7BE42EF
S325080017c080D15500C5627EE7BE4283D15500C56481E7BE4286D15500056584E7BE4289D1B4
S325080017e05500456587E7BE428CD1520082658AE70010024000093D0000127A0028000020FB
S3250800180008000020404B1B6B03F00303012B0FD03D4B1B6B03F00303022B0BD03A4B1B6B63
S3250800182003F00303032B7FF474AF384B836370E781636EE74FF4004383636AE7324B1B6B24
S3250800184003F44033B3F5803F11D02F4B1B6B03F44033B3F5003F0CD02B4B1B6B03F4403335
S32508001860B3F5403F7FF45CAF284BC36358E7C16356E74FF40043C36352E7234B1B6B03F4AC
S325080018804023B3F5802F11D01F4B1B6B03F44023B3F5002F0CD01C4B1B6B03F44023B3F5B3
S325080018a0402F7FF444AF194B036440E701643EE74FF4004303643AE7134B1B6B03F440138D
S325080018c0B3F5801F11D0104B1B6B03F44013B3F5001F0CD00C4B1B6B03F44013B3F5401FD6
S325080018e07FF42CAF094B436428E7416426E74FF40043436422E78464BDE8F0818164FBE7D5
S325080019004FF400438364F7E70010024000127A0010B5044600285AD0B0F5807F57D0B0F5BF
S32508001920887F54D0B0F5907F51D0B0F5987F4ED0B0F5A07F4BD0B0F5A87F48D0B0F5B07F28
S3250800194045D0B0F5B87F42D0B0F5C07F3FD0B0F5C87F3CD0B0F5D07F39D0B0F5D87F36D08C
S32508001960B0F1805F33D0234B984230D003F5007398422CD003F50073984228D003F50073A5
S32508001980984224D003F50073984220D003F5007398421CD003F50073984218D003F500736D
S325080019a0984214D003F50073984210D003F5007398420CD003F50073984208D003F500738D
S325080019c0984204D040F201510B48FFF711FC230F09D10A4AD36A23F4F873D362074AD36A8F
S325080019e01C43D46210BD054AD36A23F47853D362F4E700BF00200010E09B00080010024035
S32508001a0010B5044668B110280BD0B0F1805F08D0154B984205D0B0F1005F02D0134B98420C
S32508001a200AD1230F012B13D063B1022B16D0104A136B1C43146310BD40F222510D48FFF7EA
S32508001a40D7FBEEE70A4A136B23F010031363EEE7074A136B23F020031363E8E7044A136B78
S32508001a6023F040031363E2E7200000104000002000100240E09B000810B50446012804D949
S32508001a8040F2CF510248FFF7B3FB024B1C6010BDE09B0008D800424238B504460D460E4BA0
S32508001aa0034003B920B940F245610C48FFF7A0FB012D06D85DB90A4A536923EA0404546187
S32508001ac038BD40F246610548FFF792FBF2E7044A53691C435461F3E788FF00CEE09B0008B1
S32508001ae00010024038B504460D460E4B034003B920B940F26B610C48FFF77AFB012D06D802
S32508001b005DB90A4A936923EA0404946138BD40F26C610548FFF76CFBF2E7044A93691C4327
S32508001b209461F3E7FE07E8DFE09B00080010024038B504460D460E4B034003B920B940F23A
S32508001b409A610C48FFF754FB012D06D85DB90A4AD36923EA0404D46138BD40F29B61054877
S32508001b60FFF746FBF2E7044AD3691C43D461F3E7C8370189E09B00080010024038B50446BA
S32508001b800D460E4B034003B920B940F2E1610C48FFF72EFB012D06D85DB90A4AD36823EA0E
S32508001ba00404D46038BD40F2E2610548FFF720FBF2E7044AD3681C43D460F3E7FE07E8DF78
S32508001bc0E09B00080010024038B504460D460E4B034003B920B940F20C710C48FFF708FB6B
S32508001be0012D06D85DB90A4A136923EA0404146138BD40F20D710548FFF7FAFAF2E7044A58
S32508001c0013691C431461F3E7C8370189E09B00080010024010B50446012817D0112815D0F1
S32508001c20192813D0212811D041280FD059280DD05A280BD05B2809D05C2807D05D2805D034
S32508001c405E2803D05F2801D09C280CD1630910D10F4B1B6804F01F0423FA04F414F0010FBA
S32508001c6014D1002010BD4FF4ED610A48FFF7C0FAECE7012B04D0042B05D0054B5B6AE9E735
S32508001c80034B1B6AE6E7024B5B68E3E70120E9E700100240E09B000800B583B00023019357
S32508001ca01120FFF7B7FF019B01330193019BB3F5A04F01D00028F3D01120FFF7ABFF18B944
S32508001cc0002003B05DF804FB0120FAE708B5074B074A136002221A72064B074A1360074AE4
S32508001ce0074911601B68984708BD00BFBC020020DC020020C8000020B4020020D80200209B
S32508001d002C01002010B582B0044601210D4B53F82000FFF7C1FE0C4B33F814300093012310
S32508001d208DF8043000228DF806208DF8073003238DF805306946054B53F8240001F0BAFE5C
S32508001d4002B010BD309C0008509C00083C000020034B53F82030034A32F810209A61704790
S32508001d603C000020509C0008034B53F82030034A32F810201A8570473C000020509C0008CF
S32508001d80044B53F82020918A034B33F810304B40938270473C000020509C000830B587B0C4
S32508001da005460C4601214FF40030FFF775FE01210846FFF797FE00238DF814308DF81730C7
S32508001dc006A9012341F8083D134B53F8250001F071FE012C01D007B030BD0021084602F073
S32508001de0FDFB002302938DF80C3008238DF80D308DF80E400DEB0300FFF762FA06238DF8A9
S32508001e0004300F238DF805308DF806308DF8074001A802F09BF9DEE73800002008B50121E2
S32508001e20024B53F8200001F0D7FE08BD380000202DE9F04788B001214FF48050FFF752FEF9
S32508001e4001214FF40030FFF727FE01214FF40010FFF722FE01214FF40010FFF71DFE012191
S32508001e604FF40010FFF718FE052211464FF0904001F07AFF052206214FF0904001F074FF3D
S32508001e80052207214FF0904001F06EFF4FF002088DF81C8000248DF81E408DF81F400327F9
S32508001ea08DF81D7008AD202345F8083D29464FF0904001F0FFFD8023069329464FF0904063
S32508001ec001F0F8FD4023069329464FF0904001F0F1FD2B4E304602F085F9ADF804404FF42A
S32508001ee0E063ADF80830ADF80A40ADF80C404FF40073ADF80E301023ADF81030ADF812402C
S32508001f000723ADF814304FF48273ADF8063001A9304602F0ABF94FF48051304602F0BCFAA5
S32508001f200121304602F08CFA4FF0080ACDF818A04FF001098DF81C908DF81E408DF81D7046
S32508001f40104E2946304601F0B5FD5146304601F0A3FECDF818908DF81C408DF81E408DF838
S32508001f601D708DF81F402946304601F0A3FDCDF818802946304601F09DFD08B0BDE8F087CB
S32508001f80003001400010004810B50446164B4FF480521A600221154802F0E2FA48B9124AC0
S32508001fa01368591E1160002BF4D1FFF71FF9C0B210BD21460D4802F099FA0B4B4FF48052C7
S32508001fc01A600121094802F0CBFA48B9064A1368591E1160002BF4D1FFF708F9C0B2E7E774
S32508001fe0024802F09DFAE3E75C0000200030014070B505460E461446012A01D941F04006AF
S3250800200008210A4801F07CFE3046FFF7BDFF05E015F8010BFFF7B8FF013CA4B2002CF7D172
S325080020200821024801F038FE70BD00BF0010004810B582B0044600238DF807308DF80630D9
S32508002040FFF7F6FE21786078A278E37801430A4313439DF8072013438DF807302279617978
S32508002060A3790A4313439DF8062013438DF80630012220210DF10700FFF7BAFF0122232148
S325080020800DF10600FFF7B4FF02B010BD70B505461446012A09D941F0C00608210B4801F0CB
S325080020a02FFE3046FFF770FF09E041F08006F4E70020FFF769FF05F8010B013CA4B2002C49
S325080020c0F6D10821014801F0E7FD70BD0010004810B582B00446012221210DF10700FFF7BE
S325080020e0D5FF9DF8073003F0C003227861780A4313438DF80730012221210DF10700FFF74A
S3250800210077FF02B010BD10B582B00446012224210DF10700FFF7BAFF9DF8070000F0EF00E4
S3250800212020438DF80700012224210DF10700FFF75FFF02B010BD00002DE9F0438DB00121BA
S325080021404FF40010FFF7F4FC01214FF48020FFF7A3FC01214FF40010FFF79EFC01214FF434
S325080021600010FFF799FC01214FF40010FFF794FC384F04220621384601F0F6FD0422072137
S32508002180384601F0F1FD02268DF82C6000248DF82E408DF82F604FF003088DF82D800CAD3B
S325080021a0402345F8083D2946384601F083FC80230A932946384601F07DFC8DF82C408DF8C2
S325080021c02E408DF82F408DF82D804FF00409CDF8289007F540672946384601F06BFC314635
S325080021e0484602F0FBF908968DF8244008238DF825304FF001098DF8269008A8FFF760F84F
S325080022000494029403940594069407940CA9124B41F82C3D114E304601F0F6FD49463046AB
S3250800222001F06EFE10230A938DF82C408DF82E408DF82D808DF82F402946384601F03AFC45
S3250800224020230A932946384601F034FC0DB0BDE8F08300BF00040048252090000054004039
S3250800226070B582B006460D461446414B4FF420421A604FF400413F4801F0E4FE50B13C4AF0
S325080022801368581E1060002BF3D1FEF7ADFF80B202B070BDB6B24FF4005300934FF080736B
S325080022a001223146334801F051FE314B4FF420421A6002212F4801F0C5FE48B92C4A1368E0
S325080022c0591E1160002BF4D1FEF78EFF80B2DFE72946284801F08AFE254B4FF420421A60B7
S325080022e08021244801F0AEFE48B9214A1368591E1160002BF4D1FEF777FF80B2C8E70023F8
S3250800230000934FF00073012231461A4801F01EFE174B4FF420421A600221164801F092FEDE
S3250800232048B9134A1368591E1160002BF4D1FEF75BFF80B2ACE721780E4801F057FE0C4B3E
S325080023404FF420421A6020210A4801F07BFE48B9074A1368591E1160002BF4D1FEF744FF76
S3250800236080B295E72021034801F0B0FE00208FE7600000200054004010B582B00446002368
S325080023808DF807308DF80630FFF7D6FE22786178A3780A4313439DF8072013438DF80730EF
S325080023a021796079A279E37801430A4313439DF8062013438DF806300DF1070220213220D9
S325080023c0FFF74EFF0DF1060223213220FFF748FF02B010BD30B583B0054600248DF8074001
S325080023e08DF806408DF80540FFF7A6FE2B786A7813439DF8072013438DF80730EB789DF8FF
S32508002400062013438DF80630AB789DF8052013438DF805300DF1070221463C20FFF720FFAB
S325080024200DF1060201213C20FFF71AFF0DF1050202213C20FFF714FF03B030BDF0B583B0F6
S3250800244007460D4616461C46454B4FF420421A604FF40041434801F0F5FD50B1404A136869
S32508002460581E1060002BF3D1FEF7BEFE80B203B0F0BDBFB24FF400530093002301223946D7
S32508002480384801F063FD364B4FF420421A600221344801F0D7FD48B9314A1368591E11607A
S325080024a0002BF4D1FEF7A0FE80B2E0E7012C01D945F0800529462B4801F098FD284B4FF4B3
S325080024c020421A604021274801F0BCFD48B9244A1368591E1160002BF4D1FEF785FE80B22C
S325080024e0C5E74FF4105300934FF00073E2B239461C4801F02BFDD4B1194B4FF420421A609F
S325080025000421184801F09EFD48B9154A1368591E1160002BF4D1FEF767FE80B2A7E7114876
S3250800252001F07AFD06F8010B013CA4B2E3E70C4B4FF420421A6020210A4801F083FD48B943
S32508002540074A1368591E1160002BF4D1FEF74CFE80B28CE72021034801F0B8FD204686E7E0
S32508002560600000200054004030B583B0044601230DF1070221213220FFF760FF9DF80730F7
S3250800258003F00C0320786578A178E278284301430A4313438DF807300DF10702212132209A
S325080025a0FFF75EFE03B030BD0023934216D230B40BE0373401F8134000015C0001340025FE
S325080025c00D550133DBB2934206D2040F092CF0D8303401F81340EFE730BC7047704700002D
S325080025e010B582B001214FF08050FFF7A1FA01210846FFF777FA01214FF40010FFF74CFA8C
S3250800260001214FF40030FFF747FA4FF4C053009303238DF8053002238DF8043000248DF890
S3250800262006408DF8074069464FF0904001F042FA0E220B214FF0904001F096FB0E220C2145
S325080026404FF0904001F090FB01212046FFF7A6FB1220FEF719FF07481223036004710823FC
S32508002660437101238371FEF72BFE2046FEF70CFF02B010BDE802002008B50020FFF7FCF9AB
S3250800268001214FF40000FFF753FA08BD08B5034B03221A600020FEF7F7FE08BD34020020F0
S325080026a008B50120FEF70CFFFFF7F6FA104B18701120FFF7AFFA0028FAD00120FEF714FF7A
S325080026c01920FFF7A7FA0028FAD00220FEF71CFFFEF730FF0828FBD1064B9B7A1BB9064B4D
S325080026e001221A6008BD044B05221A60FAE700BFE4020020BC0200203402002030B583B088
S325080027004FF4A06001F002FD14238DF8043002238DF8053000258DF8065001248DF80740B8
S3250800272001A801F013FD2A238DF804308DF805408DF8074001A801F009FD06238DF80430C3
S325080027408DF8055001A801F001FD03B030BD000008B528B94FF48041044801F09DFA08BD1E
S325080027604FF48041014801F0CBFAF8E70010004838B50A4B186804331C6804331B68C01802
S3250800278000D138BD064D08222946FFF70DFF042205F110012046FFF707FFF2E7E8F7FF1F12
S325080027a06600002008B5384B1B689BB2374A13801388374A128803F400431A424DD1334B79
S325080027c01B88334A128803F480631A4206D02E4B4FF6FF321A602F4B5B6898472B4B1B8887
S325080027e02B4A128803F400531A4203D0264B4DF6FF721A60254B1B88254A128803F48053BE
S325080028001A422DD1214B1B88214A128803F400631A4208D0204B1B7853B300F06DF91A4BEF
S325080028204FF2FF721A60194B1B88194A128803F400731A4208D0144B4FF6FF521A60174AEC
S3250800284013780133DBB21370104B1B88104A128803F480731A420FD108BD00F0B7FEAEE784
S32508002860094B4EF6FF721A60002000F067F9C9E7022000F063F9D2E7034B4FF6FF621A6012
S32508002880072000F05BF9E7E7445C0040F0020020E0020020C8000020500100203002002052
S325080028a0034B9B7A13B1034B05221A60704700BFBC02002034020020014B04221A607047A7
S325080028c03402002070477047062814D0174B1B681B7803F07F03212B22D1032822D1144B6B
S325080028e013B310B5114A126893610024548220469847204610BD0D4B1A68137803F07F032A
S32508002900012BE3D15379002BE0D19378222B05D0212B01D1074BE3E702207047064BDFE7CA
S32508002920022070470220704702207047DC0200204D690008796A0008696A000821B908B9E1
S3250800294000207047022070470220704708B103487047034B1B6801221A827047F4020020C8
S32508002960DC02002010B5FFF703FF054B1B6800249C7200F0A9F801F08DF8024B1C6010BDEC
S32508002980DC0200203402002010B5224B1B6800249C72DC72204AD2795A72204600F06CFF5E
S325080029a04FF40071204600F06FFF1021204600F07AFF1821204601F00BF85821204600F02F
S325080029c0F7FF204600F0BAFF144B93F82C10204601F038F8204600F09EFF4FF4C0610120BF
S325080029e000F052FF4FF48071012000F0E1FF0421012001F019F82146012000F070FF2021F3
S32508002a00012000F050FF204600F088FD044B01221A6010BDDC020020609C0008C8000020CA
S32508002a203402002008B5024900F0E0FC08BD00BFC000002008B5024900F0D8FC08BD00BFAA
S32508002a40B800002008B5064B1B68DB78042B05D8044901EBC30100F0C9FC08BD0020FCE726
S32508002a60DC0200200C01002008B5024900F0BEFC08BD00BFFC00002008B5024900F0B6FC21
S32508002a8008BD00BF04010020034B1B68DA78034B1A600020704700BFDC020020F4020020EA
S32508002aa008B5084B1B681B7803F07F03212B06D10B2801D0022003E0FFF7E6FF00E0022064
S32508002ac008BD00BFDC02002008B50120FFF740FE064B01221A6000201860054A10604FF4CC
S32508002ae0E05204490A801A6008BD00BF405C0040445C0040E002002008B5074A13689BB22D
S32508002b0043F00803136013689BB243F004031360FFF7BCFD08BD00BF405C004010B5064C5B
S32508002b2023689BB223F004039BB22360FFF7B8FD4FF43F43236010BD405C004008B507283D
S32508002b4001D0264B1870254B1B78DBB2052B41D8DFE803F003090F15212DFFF7DFFF1F4B4E
S32508002b6006221A7008BDFFF7D9FF1C4B04221A70F8E71A4B02225A7003221A70F2E7174AD0
S32508002b805378013BDBB253705378002BEAD1134604221A70E6E7124A13689BB243F01003DF
S32508002ba013600E4B05221A700A225A70DAE70B4A5378013BDBB253705378002BD2D1084A3C
S32508002bc013689BB223F010039BB21360034B06221A70C7E7014B06221A70C3E7F8020020C9
S32508002be0405C0040014B01221A7070470000002008B538B1064B1B681B689847054B18686F
S32508002c000A3008BD034B1B6801221A82F9E700BFD8020020DC02002008B538B1064B1B6806
S32508002c209B689847054B18680C3008BD034B1B6801221A82F9E700BFD8020020DC020020AC
S32508002c4008B5E8B1294B00221A80294B1A68137813F07F031FD1537A13F0200F02D0234AAC
S32508002c600221117013F0400F0FD0204A137843F0010313701F4B1B681B6998471B4808BD4A
S32508002c801B4B1B6802221A82F9E7184A137823F001031370EEE7012B24D0022B24D1527934
S32508002ca002F00F0312F0800F0ED19B0003F1804303F5B8431B6803F44053B3F5805FD9D10F
S32508002cc00A4B01221A70D5E79B0003F1804303F5B8431B6803F03003102BCBD1034B0122F2
S32508002ce01A70C7E70148CAE70020C8E7FC020020DC020020D8020020F8B5254B1D682C8A57
S32508002d002B7A0CB9042B28D0AB8A9C423DD804269C4200D31C46AB69A4B2204698470746B3
S32508002d20002000F065FE22460146384600F07CFD2146002000F078FE2B8A1B1B2B826B8A02
S32508002d401C446C82134B30221A80134B4FF440521A800F4B1B681E72F8BD104B1B78012BC4
S32508002d6004D00C4B10221A800726F2E70C4B1B680C4A12FA83F35B0000221A60054B3021FE
S32508002d801980064B1A700426E3E70226C0E700BFDC02002000030020FE0200203802002094
S32508002da0505C00400230002010B582B0774B1A685378062B31D03BB9518829B9516821F412
S32508002dc07F41B1F5003F3FD0082B7AD00A2B00F088806F4B1B681B696C4A126850789847EF
S32508002de0032800F0A080694B1B681A8A4FF6FF718A4200F09D80022800F09D80002A00F0D0
S32508002e009A8093F900100029C0F2998003221A72604B4FF440521A808FE0137813F07F0FA4
S32508002e20D7D19378012B07D0022B09D0032BD0D1574B1B685B6A49E0554B1B68DB6945E05A
S32508002e40534B1B681B6A41E0137813F07F0302D19188002965D0012B0ED14D4B1B689B6919
S32508002e600021507998470028B3D1484B1B689B7A002BAED0484B29E0022BAAD1537903F0F8
S32508002e800F0203F0700013F0800F11D1930003F1804303F5B8431B6803F440533F490978E9
S32508002ea0914296D9002894D1002B92D03A4B0DE0930003F1804303F5B8431B6803F0300350
S32508002ec0ECE7137813F07F0F83D1354B002B80D02E4A12680024548293612046984720461B
S32508002ee081E7137803F07F03012B7FF472AF937A002B3FF46EAF5388002B7FF46AAF5368C7
S32508002f0023F47F43B3F5803F7FF463AF204B1B689B6900215079984700287FF45AAF214B13
S32508002f20D4E71D4BD2E7194B1B6809221A7204E009221A7201E008221A7202B010BDD988F7
S32508002f4001910198824209D9019A1A82104A126892F82C209A82FFF7CFFEEEE78A42F5D26A
S32508002f600B49096891F82C1088B2824203D20E4A00211170EAE792FBF1F001FB1022002A55
S32508002f80E4D1094A01211170E0E700BFDC020020B4020020FE020020416C0008F800002031
S32508002fa0F16B0008196C00083802002070B5244B1C68258AA369B3B1ADB1A18A8D4200D356
S32508002fc00D46ADB2284698470646238A5B1B2382638A2B446382002000F018FD2A460146B3
S32508002fe0304600F038FC238AA3B9238AA28A93421CD203BB124B1B6806221A72114B1B6853
S32508003000114A12FA83F35B0000221A600F4B30221A800FE00E4B4FF440521A800021084662
S3250800302000F002FD094B30221A80DEE7044B1B6803221A7270BD024B1B6805221A72F9E77B
S32508003040DC020020505C00400230002000030020FE02002008B50C4B1B68DA780B494978E5
S325080030608A420AD8997851B9998851B99A72084B1B685B689847002008BD0220FCE70220BE
S32508003080FAE70220F8E700BFDC020020F8000020D802002038B5124B1B689A69114D2B68B0
S325080030a0D978587990472B689A7A7AB1044680B91A7982B99B7883B90B4B1B68DB6898479C
S325080030c02B685A79DA72DA781A7300E00224204638BD0224FBE70224F9E70224F7E700BF1F
S325080030e0B4020020DC020020D8020020454B1A68137813F07F0332D0022B76D15388002B56
S3250800310075D11379002B74D110B5537923F080005BB2002B29DB810001F1804101F5B841DC
S32508003120096801F44051384C2478844263D9002963D0927A002A62D0002B1FDB840004F106
S32508003140804404F5B844236803F44053B3F5805F27D02E4B1B685B699847002010BD537ABC
S3250800316023F02003537200207047810001F1804101F5B841096801F03001D4E7830003F187
S32508003180804303F5B8431B6803F03003102BE0D1C4B2204600F0F7FB3021204600F083FBF3
S325080031a0D7E790B91A4B93F82C1000F04BFC23689BB223F4804323F0700383F4405343F41E
S325080031c0004343F080032360C3E700F0C8FB23689BB223F4804323F0700383F4405343F48F
S325080031e0004343F080032360B3E70220704702207047022070470220B0E70220AEE702208E
S32508003200ACE700BFDC020020F8000020D8020020C800002010B52D4B1868437923F0800248
S325080032205BB2002B2DDB910001F1804101F5B841096801F44051264C247894423DD9448850
S32508003240002C3CD100293CD0817A00293BD0002B20DB920002F1804202F5B84213689BB29D
S3250800326023F4804323F0700383F4805343F4004343F080031360174B1B689B69984700200B
S325080032801CE0910001F1804101F5B841096801F03001D0E7920002F1804202F5B8421368F4
S325080032a09BB223F4E04323F0400383F0100343F4004343F080031360DDE7022010BD022025
S325080032c0FCE70220FAE70220F8E700BFDC020020F8000020D802002008B5064B1A68537ACD
S325080032e043F020035372044B1B68DB699847002008BD00BFDC020020D802002010B5364BCE
S325080033001A685478137813F07F032ED1092C11D0052C13D0032C20D0012C2AD1D378012B5A
S3250800332027D193882BBB537A13F0200F21D0FFF7DDFE01E0FFF78EFE10B31AE092F90330E7
S32508003340002B3DDB9378002B3CD19388002B3BD1937A002B3AD1002012E0D378012B08D1E2
S32508003360938833B9FFF7B8FFE6E7012B19D0022B1CD01A4B1B685B6920469847032827D07D
S3250800338040BB174B1B68174A12FA83F35B0000221A60154B30221A8006220F4B1B681A7288
S325080033a010BD0B2CE5D1FFF775FEC5E7012C04D0032CDED1FFF72EFFBEE7FFF797FEBBE75C
S325080033c00822EAE70822E8E70822E6E70822E4E70922E2E70822E0E7DC020020B402002046
S325080033e0505C00400230002000030020054B1B685A8A10B10868104470478888801A188227
S3250800340000207047DC02002008B50C4B93F82C10002000F017FB0A4B1B68187A082804D05E
S32508003420092814BF0020012008BD064B4FF480521A80054B10221A80F2E700BFC8000020D8
S32508003440DC020020FE0200200003002070B51B4B1B681B4A12FA83F35B001B88194A12684D
S32508003460117A09290AD1174B1B6801221A72DB880BB3FFF799FCFFF7C7FF70BD5B0003F12E
S32508003480804303F5C0435D1C197811700D4C22685B7853702668B5F8030000F0F5FA70804F
S325080034a02668B5F8070000F0EFFAB0802368B5F80B20DA80D7E7FFF721FFDCE7505C004073
S325080034c004300020DC02002008B5124B1B681B7A022B13D0042B18D0032B09D0052B07D025
S325080034e0072B14D10C4B1B68DB689847082206E0FFF75CFD074B1B681A7A00E00822054B89
S325080035001B681A72FFF780FF08BD0822F7E70822F5E700BFDC020020B402002030B40F4B75
S325080035201D78002111E0CCB2A20002F1804202F5B842136823F0F0031B051B0D43F40043CD
S3250800354043F08003234313600131A942EBD340F08000034B186030BC704700BFF800002003
S325080035604C5C004008B5154B1A68137A022B05D0042B03D0062B0CD0082204E0FFF7BCFB5D
S325080035800E4B1B681A7A0D4B1B681A72FFF73CFF08BD5378052B05D0094B1B689B689847C7
S325080035a00822F0E7137813F07F0FF5D1D078FFF7B5FF044B1B681B6A9847EDE7DC02002020
S325080035c0B4020020D80200207047000010B582B00023ADF806309FE01446136823F4E143D2
S325080035e023F070031B041B0C1360FFF7BBFF236823F4804323F040031B041B0C824A128867
S3250800360012F4805F01D083F480537F4A128812F4005F01D083F400537C4A128812F0100FB8
S3250800362001D083F01003794A128812F0200F01D083F020039BB243F4004343F08003744AF5
S32508003640136002B010BD724C236823F070031B051B0D2360FFF7FAFE236823F4804323F06A
S3250800366040031B041B0C684A128812F4805F01D083F48053644A128812F4005F01D083F472
S325080036800053624A128812F0100F01D083F010035E4A128812F0200F01D083F020039BB2E4
S325080036a043F4004343F08003594A1360C9E79B0003F1804303F5B8431A6892B2ADF8062030
S325080036c0BDF8062012F4004F0CD01A6822F070021205120D1A604F4B1B78013B4E4A52F8CF
S325080036e023309847BDF8063013F0800F14D049490B789B0003F1804303F5B8431A6822F437
S32508003700E14222F070021204120C1A600B78013B424A52F823309847414B1B6899B2414A9A
S32508003720118013F4004F8CD03E4B1B8803F00F03384A1370002BBAD1354A116889B2324B9C
S325080037401980198801F0300130480180198801F440511980136823F4804323F040031B047C
S325080037601B0C83F4005383F0200343F4004343F0800313602B4B1B8813F0100F3FF42CAFC8
S32508003780234B1B689BB2ADF80630BDF8063013F4006F7FF458AFBDF8063013F4004FBBD05B
S325080037a01B4C236823F070031B051B0D2360FFF78BFE236823F4804323F040031B041B0C38
S325080037c0114A128812F4805F01D083F480530E4A128812F4005F01D083F400530B4A128805
S325080037e012F0100F01D083F01003084A128812F0200F01D083F020039BB243F4004343F0C5
S325080038008003034A13601CE7FE02002000030020005C0040B80200209C000020800000203F
S32508003820445C0040F00200200132521001F1005101F5405149006AB110B40378447843EA9D
S32508003840042321F8043B0230013A002AF5D15DF8044B704770470132521001F1005101F59E
S325080038604051490004E00B6820F8023B013A0431002AF8D17047000020F0070080B2014B05
S3250800388018607047505C0040800000F1804000F5B84003681BB223F4EC4323F07003194381
S325080038a089B201607047800000F1804000F5B84003689BB223F4E04323F040039BB211F0F3
S325080038c0100F01D083F0100311F0200F01D083F0200343F4004343F0800303607047800003
S325080038e000F1804000F5B84003689BB223F4804323F070039BB211F4805F01D083F48053B8
S3250800390011F4005F01D083F4005343F4004343F0800303607047800000F1804000F5B84032
S3250800392003689BB223F4804323F0700383F4405343F4004343F0800303607047800000F19C
S32508003940804000F5B84003681BB223F4F8731B051B0D43F4004343F08003036070478000E0
S3250800396000F1804000F5B840036813F4804F09D0036823F0F0031B051B0D43F4404343F0DB
S32508003980800303607047800000F1804000F5B840036813F0400F09D0036823F0F0031B0537
S325080039a01B0D43F4004343F0C0030360704700004908064B1B68C00010FA83F000F10050A4
S325080039c000F540504000490001607047505C00404908054B1B68C00010FA83F0034B0344D1
S325080039e05B00490019607047505C004004300020054B1B68C00010FA83F000F1005000F55F
S32508003a004050400000887047505C0040044B1B68C00010FA83F0034B03445B001888704747
S32508003a20505C004004300020044B1B68C00010FA83F0034B03445B0019607047505C00401D
S32508003a40023000200E4B1B68C00010FA83F00D4B03445B003E290AD94A0911F01F0F01D155
S32508003a60013A92B2920242F400421A6070474A0811F0010F00D0013292021A60704700BF92
S32508003a80505C004006300020C3B2000A40EA0320704700000020044B18604FF43F43034A5A
S32508003aa01380034A13607047445C0040E0020020405C0040F8B505460E46B0F1904F1ED076
S32508003ac0434B98421BD003F58063984217D003F58063984213D003F5806398420FD003F5C5
S32508003ae0806398420BD003F58063984207D003F58063984203D0BE213648FDF779FB3368AC
S32508003b003BB13379032B09D8F379022B0BD8002438E0BF212F48FDF76BFBF2E7C0212D4858
S32508003b20FDF766FBF0E7C1212A48FDF761FBEEE7D1212848FDF75CFB35E0AA88A0B201216A
S32508003b40814022EA0102AA80AA88B37983409BB21343AB802B686100032202FA01F023EA5B
S32508003b6000032B602B683079884003432B60EB68A0B24000824023EA0202F3798B4013438F
S32508003b80EB6001340F2C22D80123A34032689343F7D13379013BDBB2012BDBD87379013BA7
S32508003ba0DBB2022BC4D8A96867000320B84021EA0001A960AB687279BA401343AB60B37974
S32508003bc0012BBAD9D8210348FDF712FBB5E7F8BD00040048309D000838B504460D46B0F136
S32508003be0904F1FD02A4B98421CD003F58063984218D003F58063984214D003F580639842C3
S32508003c0010D003F5806398420CD003F58063984208D003F58063984204D040F23B111D482C
S32508003c20FDF7E6FA6B1E9BB2012B23D9042D21D0082D1FD0102D1DD0202D1BD0402D19D0A6
S32508003c40802D17D0B5F5807F14D0B5F5007F11D0B5F5806F0ED0B5F5006F0BD0B5F5805F37
S32508003c6008D0B5F5005F05D0B5F5804F02D0B5F5004F04D1238A1D4207D1002038BD4FF42B
S32508003c809E710448FDF7B4FAF4E70120F6E700BF00040048309D000838B504460D46B0F135
S32508003ca0904F1FD0144B98421CD003F58063984218D003F58063984214D003F58063984218
S32508003cc010D003F5806398420CD003F58063984208D003F58063984204D040F28B11074832
S32508003ce0FDF786FA0DB1A56138BD4FF4C6710348FDF77EFAF7E700BF00040048309D00089A
S32508003d0038B504460D46B0F1904F1FD0144B98421CD003F58063984218D003F58063984225
S32508003d2014D003F58063984210D003F5806398420CD003F58063984208D003F58063984229
S32508003d4004D040F29D110748FDF752FA0DB1258538BD4FF4CF710348FDF74AFAF7E700BF12
S32508003d6000040048309D000870B505460C461646B0F1904F1FD0224B98421CD003F5806379
S32508003d80984218D003F58063984214D003F58063984210D003F5806398420CD003F58063B9
S32508003da0984208D003F58063984204D040F207211448FDF71DFA0F2C16D80F2E1AD804F0AD
S32508003dc007039B009E40E108083155F821200F2000FA03F322EA030345F8213055F8213045
S32508003de01E4345F8216070BD4FF402710548FDF7FFF9E2E740F209210248FDF7F9F9DEE760
S32508003e0000040048309D000838B504460D46394B984207D003F58063984203D0B3213648DA
S32508003e20FDF7E6F96B6813B1B3F5805F49D1AB680F2B4BD8EB682BB1B3F5001F02D0B3F589
S32508003e40801F48D12B69B3F5806F49D26B6913B1B3F5004F49D1AB6933B1B3F5806F03D04B
S32508003e60B9212548FDF7C4F9236823F0010323602368224A1A406B68A96843EA012313433B
S32508003e8023602B6823F070632361236843F0010323600023A360E360AB692A691343A360E6
S32508003ea0A36843F40043A360EA68236813432360636823F0784323F400436A6913436360D7
S32508003ec038BDB4210C48FDF793F9B0E7B5210A48FDF78EF9AEE7B6210748FDF789F9B1E733
S32508003ee0B7210548FDF784F9B0E7B8210248FDF77FF9B0E700540040809D0008FFE0CF00FA
S32508003f0038B504460D460F4B984208D003F58063984204D04FF48D710B48FDF769F9012D5C
S32508003f2005D855B9236823F00103236038BD40F21B110548FDF75CF9F3E7236843F00103DE
S32508003f402360F3E700540040809D00082DE9F04105460C4690461F46069E224B984208D05B
S32508003f6003F58063984204D040F275311E48FDF73FF9B4F5806F23D2B7F1807F03D0B7F191
S32508003f80007F00D017BBB6F5804F06D0B6F5105F03D0B6F5005F00D0F6B96A6822F07F7257
S32508003fa022F4593222F47F7222F00302C4F3090343EA08433B43334313436B60BDE8F081CE
S32508003fc040F276310848FDF713F9D5E740F277310548FDF70DF9D6E74FF45E710248FDF7C0
S32508003fe007F9DAE700540040809D000838B504460D46074B984208D003F58063984204D022
S3250800400000A0002071430008F5510008F7510008F9510008FB510008FD510008000000007C
S32508004020000000000000000000000000FF5100080152000800000000035200080552000803
S32508004040CD430008CF430008D1430008D3430008D5430008D743000829520008DB430008FB
S32508004060DD430008DF430008E1430008E3430008E5430008E7430008E9430008EB430008BA
S32508004080ED430008EF430008F1430008F3430008A9520008F7430008F9430008FB43000857
S325080040a0FD430008FF43000801440008034400080544000807440008094400080B44000874
S325080040c00D4400080F44000811440008134400081544000817440008194400081B440008D2
S325080040e01D4400081F440008B1520008234400082544000827440008294400082B44000894
S325080041000000000000000000000000002D4400082F44000831440008334400083544000820
S3250800412037440008394400083B4400083D4400083F44000841440008000000000000000041
S3250800414043440008454400084744000800000000000000000000000000000000000000009E
S325080041600000000000000000494400084B4400084D4400080000000000000000000000006C
S32508004180000000004F44000810B5054C237833B9044B13B10448AFF300800123237010BDD4
S325080041a0C001002000000000F89E000808B5034B1BB103490348AFF3008008BD000000001D
S325080041c0C4010020F89E0008154B002B08BF134B9D46A3F5803A00218B460F461348144A69
S325080041e0121A05F0C1FC0F4B002B00D098470E4B002B00D098470020002104000D000D48C5
S32508004200002802D00C48AFF3008005F089FC2000290000F04DFB05F06FFC00BF00000800FE
S3250800422000A000200000000000000000C001002002030020000000000000000000B583B0C2
S325080042400023019300932C4A136843F480331360294B1B6803F400330093019B01330193A0
S32508004260009B1BB9019BB3F5A04FF1D1224B1B6813F4003F07D001230093009B012B05D06C
S3250800428003B05DF804FB00230093F6E71B4B10221A60A3F580535A6842F080025A605A6807
S325080042a05A605A685A605A6822F47C125A605A6842F480325A601A6842F080721A600E4BBD
S325080042c01B6813F0007FFAD00B4B5A6822F003025A605A6842F001025A60074B5B6803F05F
S325080042e00C03042BF9D14FF4907001F011FB4FF0805001F085FBC3E700100240002002408A
S3250800430010B5174CD4F8883043F47003C4F88830144B1A6842F001021A605968124A0A40CE
S325080043205A601A6822F0847222F480321A601A6822F480221A605A6822F4FE025A60DA6A5F
S3250800434022F00F02DA62196B084A0A401A6300229A60FFF773FF4FF00063A36010BD00BF9E
S3250800436000ED00E0001002400CC07FF8CCFC00FF0649074A074B9A42BEBF51F8040B42F829
S32508004380040BF8E70448804704480047049F000800000020C001002001430008C941000871
S325080043a02B492C4A002301E041F8043B9142FBD305F0B6FB00F07CFAFEE7FEE7FEE7FEE748
S325080043c0FEE7FEE7FEE7FEE7FEE7FEE7FEE7FEE7FEE7FEE7FEE7FEE7FEE7FEE7FEE7FEE77F
S325080043e0FEE7FEE7FEE7FEE7FEE7FEE7FEE7FEE7FEE7FEE7FEE7FEE7FEE7FEE7FEE7FEE75F
S32508004400FEE7FEE7FEE7FEE7FEE7FEE7FEE7FEE7FEE7FEE7FEE7FEE7FEE7FEE7FEE7FEE73E
S32508004420FEE7FEE7FEE7FEE7FEE7FEE7FEE7FEE7FEE7FEE7FEE7FEE7FEE7FEE7FEE7FEE71E
S32508004440FEE7FEE7FEE7FEE7FEE7FEE7FEE7FEE7C00100200203002008B502F0C1F802F0C6
S325080044600BF902F04BF901F031FC044B1B68052B03D0034B1B68002BF7D108BD3402002022
S325080044800400002030B585B008238DF8083000248DF8094007238DF80A3030238DF80B30FA
S325080044a08DF80C408DF80D4010258DF80E5002A801F0BEFD8DF804408DF8054001A801F0B0
S325080044c007FE284601F01FFE05B030BD10B586B0044600230493ADF814300293ADF80C304D
S325080044e006A800F8113D0122232101F0CFFD0622282104A801F0CAFD9DF8073013F0400FA3
S325080045001FD000222FE05300591C06A8014411F8080C06A90B4413F8081C01EB002123F840
S32508004520101C0132022AEEDD9DF8073003F03003102B1BD0202B1CD0F3B1DFED1B6A0023B0
S325080045402DE00022EEE7530006A9194411F8080C01330DF1180C634413F8083C03EB002370
S3250800456021F8103C0132022AEDDDDDE7DFED0F6AE5E7DFED0F6AE2E7DFED0E6ADFE706AA02
S3250800458002EB430232F9102C07EE902AF8EEE77A04EB830287EEA67A82ED007A0133022B2B
S325080045a0EDDD06B010BD00BF00000000549264425C8F6441EC91E44210B584B000248DF880
S325080045c00C4014238DF80D30E0238DF80F308DF80E4003A801F0FEFE8DF8044040238DF8A5
S325080045e0053007238DF806308DF80A408DF808408DF8094008238DF8073001A801F0BCFEEE
S3250800460080238DF8003010238DF801308DF802408DF80340684601F0A7FF04B010BD0000F6
S3250800462030B587B00446022303AA2321322001F005FF062301AA2821322001F0FFFE9DF8B7
S325080046400D3013F0400308D040209DF80C2012F0400F30D08BBB002145E01020F5E7510096
S325080046604B1C06AD2B4413F8143C1B02294411F8145C05FA83F393FBF0F321F8083C0132CF
S32508004680D2B2022AEBD9022303AA2321322001F0D5FE9DF80D3013F0400F2DD19DF80C3079
S325080046a003F03003202B21D0302B22D0102B27D0F7EE006A22E00022E3E70022E1E74A009A
S325080046c006AB9D1815F8143C1B0201320DF1180C624412F8142C02FA83F393FBF0F325F8A7
S325080046e0083C0131C9B20229E9D9CCE7F5EE006A04E0DFED0F6A01E0F5EE006A002313E061
S32508004700F6EE006AFAE706AA02EB430232F9082C07EE902AF8EEE77A04EB830287EEA67A1C
S3250800472082ED007A0133DBB2022BECD907B030BD9FCDAA3D70B582B0044602AA002302F86E
S32508004740013D012319463C2001F078FE494D01232A4603213C2001F071FE0123EA18042172
S325080047603C2001F06BFE0123AA1C07213C2001F065FE0123EA1C08213C2001F05FFE012392
S325080047802A1D05213C2001F059FE01236A1D06213C2001F053FE9DF8073003F0E003802B3D
S325080047a020D00AD8402B13D0602B16D0202B27D0002606EE106A002342E0C02B17D0E02B62
S325080047c01AD0A02BF4D140F263169FED2B6AF2E74FF43E769FED296AEDE74FF416769FED67
S325080047e0286AE8E74FF4C8769FED266AE3E740F227169FED256ADEE7CD269FED246ADAE7C6
S325080048004FF475769FED226AD5E75800194D15F8131001302A5C02EB012211B24FF47A72E1
S3250800482002FB01F207EE902AF8EEE77A04EB8302F8EEC66A87EEA67A82ED007A0133DBB2BB
S32508004840012BE2D90B490A794B7903EB02231AB24FF47A7303FB02F307EE903AF8EEE77AC0
S3250800486007EE106AB8EEC77AC7EE876AC4ED026A02B070BD1C020020900100005703000009
S325080048809E020000C20100004A010000E60000004C04000082B00190019A044B1A60034BB1
S325080048a01B68002BFBD102B0704700BF1002002030B583B0AA4C204600F044FE6368A94AB2
S325080048c0A2FB03235B09013BB3F1807F09D2A64A5360A64BF02183F8231000239360072356
S325080048e01360002001F00EFA012001F00BFA022001F008FA032001F005FA042001F002FACE
S32508004900052001F0FFF9062001F0FCF9072001F0F9F90121002001F041FAFFF79DFD944B88
S3250800492000221A60002001F01FFA032001F01CFA042001F019FA012001F016FA072001F017
S3250800494013FA052001F010FA062001F00DFA022001F00AFA2FE0002001F012FA0520FFF7A0
S3250800496099FF022001F00CFA0520FFF793FF042001F006FA0520FFF78DFF062001F000FAFE
S325080049800520FFF787FF072001F0FAF90520FFF781FF052001F0F4F90520FFF77BFF032007
S325080049a001F0EEF90520FFF775FF012001F0E8F90520FFF76FFF6E4B1B68002BCBD00020E4
S325080049c06C4B187001F0D0F9032001F0CDF9042001F0CAF9012001F0C7F9072001F0C4F977
S325080049e0052001F0C1F9062001F0BEF9022001F0BBF9FFF747FD22E0072001F0A9F970E0FE
S32508004a0007EE903AF8EEE77AB9EE047AF4EEC77AF1EE10FA7DD4584BD3ED017AFDEEE77AD6
S32508004a20CDED017A9DF9043007EE903AF8EEE77AB1EE047AF4EEC77AF1EE10FA6DDC4C4B5A
S32508004a401B68012B6DD14B4B1B78DBB2052BFAD10020484B187001F087F9032001F084F96D
S32508004a60042001F081F9012001F07EF9072001F07BF9052001F078F9062001F075F9022056
S32508004a8001F072F93C4C2046FFF720FDD4ED007AFDEEE77ACDED017A9DF9042082EAE27077
S32508004aa0A0EBE270C0B2354B1870D4ED017AFDEEE77ACDED017A9DF9043083EAE371A1EBBD
S32508004ac0E371C9B22E4C2170884299D907EE902AF8EEE77AB1EE047AF4EEC77AF1EE10FA93
S32508004ae08ADC254BD3ED007AFDEEE77ACDED017A9DF9043007EE903AF8EEE77AB9EE047A22
S32508004b00F4EEC77AF1EE10FA99D5002001F020F995E7032001F01CF97DE7042001F018F9B4
S32508004b208DE70024134B1C70012001F01DF9204601F01AF9032001F017F9042001F014F90D
S32508004b40072001F011F9052001F00EF9062001F00BF9022001F008F9FFF72EFD0BE300BF0B
S32508004b60540200201F85EB5110E000E000ED00E014020020F4010020E80100203C02002082
S32508004b8018020020B24A02EB8302D2ED006A9FEDB17AC6EE877AC2ED007A0133DBB2022BB3
S32508004ba0F0D9AB4CD4ED007A67EEA77A94ED017A27EE077A77EE877A94ED027A27EE077AEB
S32508004bc077EE877A17EE900A04F038FC41EC100B03F08EFD51EC100B04F038FF06EE900AC3
S32508004be09D4D286094ED017AB1EE477AC7EE267A9A4BC3ED007A67EEA77A17EE900A04F06C
S32508004c001DFC02460B460020954904F0B7FA41EC100B03F06DFD51EC100B04F017FF914B4E
S32508004c201860D4ED006A95ED007AC6EE877A8E4BC3ED007A67EEA77A17EE900A04F0FEFB0D
S32508004c4002460B460020864904F098FA41EC100B03F04EFD51EC100B04F0F8FE834B18602A
S32508004c60D4ED027AF5EEC07AF1EE10FA00F1C4807C4B186804F0E2FB41EC100B03F0DCFC83
S32508004c8000227B4B51EC100B04F030FC6EA3D3E9002304F055FD04F0D9FE764B18606F4BB2
S32508004ca0D3ED007AF5EEC07AF1EE10FA00F1B2806E4B186804F0C2FB41EC100B03F0BCFCA6
S32508004cc000226B4B51EC100B04F010FC5EA3D3E9002304F035FD04F0B9FE674B1860624B0E
S32508004ce093ED007AB5EEC07AF1EE10FA00F19A80624BD3ED017A5B4AD2ED006A27EEA60A60
S32508004d009FED5F6A30EE060A93ED026A534AD2ED005A26EE255A30EE050A5A4A82ED000A83
S32508004d20D3ED000A514B93ED005A60EE850A67EEA57A67EE277A70EEA70A66EE866A27EE76
S32508004d40267A70EEC70A504BC3ED000A03F02CFDDFED4E7A20EE270A9FED4D7AC0EE077AB0
S32508004d604C4BC3ED007AD3ED007AF5EEC07AF1EE10FA5FD43F4BD3ED007AF0EEE77A9FED62
S32508004d80467AF4EEC77AF1EE10FA00F2D9813A4BD3ED007AF0EEE77AF4EEC77AF1EE10FAE3
S32508004da000F2CE813B4B93ED007AF3EE097AB4EEE77AF1EE10FA73D5D3ED007AF5EEC07A35
S32508004dc0F1EE10FA6CDB072000F0C2FF002000F0CBFF032000F0C8FF042000F0C5FF012010
S32508004de000F0C2FF052000F0BFFF062000F0BCFF022000F0B9FFBEE107EE900AF1EE677A98
S32508004e00C3ED007A174BD3ED007AF1EE677AC3ED007A2DE707EE900AF1EE677A154BC3ED61
S32508004e20007A45E707EE900AF1EE677A124BC3ED007A5DE7D3ED007A9FED187A77EE877AE6
S32508004e40C3ED007A96E700BF00000060FB210940DC0100200000C842500200204802002036
S32508004e600000F03F400200204C02002024020020008066400C02002008020020FC01002044
S32508004e8000000000280200204402002000003443DB0F4940F8010020000020420000B443F8
S32508004ea0BF4B93ED007ADFEDBF7AB4EEE77AF1EE10FA09DB93ED007ADFEDBB7AB4EEE77A0D
S32508004ec0F1EE10FA7FF67FAFB54B93ED007ADFEDB77AB4EEE77AF1EE10FA09D593ED007A7D
S32508004ee0F3EE097AB4EEE77AF1EE10FA80F29280AB4B93ED007ADFEDAE7AB4EEE77AF1EE0A
S32508004f0010FA09D593ED007ADFEDA87AB4EEE77AF1EE10FA80F29780A14B93ED007ADFED8C
S32508004f20A57AB4EEE77AF1EE10FA09D593ED007ADFED9F7AB4EEE77AF1EE10FA80F29C8021
S32508004f40974B93ED007ADFED9C7AB4EEE77AF1EE10FA09D593ED007ADFED967AB4EEE77AE2
S32508004f60F1EE10FA80F2A1808D4B93ED007ADFED937AB4EEE77AF1EE10FA09D593ED007A38
S32508004f80DFED8D7AB4EEE77AF1EE10FA80F2A680834B93ED007ADFED8A7AB4EEE77AF1EE32
S32508004fa010FA09D593ED007ADFED847AB4EEE77AF1EE10FA80F2AB80794B93ED007ADFED24
S32508004fc0797AB4EEE77AF1EE10FA40F1D48093ED007ADFED7B7AB4EEE77AF1EE10FAC0F206
S32508004fe0CA80052000F0B4FE032000F0BDFE072000F0BAFE042000F0B7FE062000F0B4FE64
S32508005000002000F0B1FE012000F0AEFE022000F0ABFEB0E0062000F09BFE032000F0A4FE57
S32508005020072000F0A1FE002000F09EFE052000F09BFE022000F098FE012000F095FE0420E2
S3250800504000F092FE97E0042000F082FE002000F08BFE012000F088FE062000F085FE0720C7
S3250800506000F082FE052000F07FFE032000F07CFE022000F079FE7EE0022000F069FE032010
S3250800508000F072FE072000F06FFE052000F06CFE062000F069FE042000F066FE012000F099
S325080050a063FE002000F060FE65E0002000F050FE032000F059FE012000F056FE052000F08C
S325080050c053FE062000F050FE022000F04DFE072000F04AFE042000F047FE4CE0012000F0BB
S325080050e037FE032000F040FE072000F03DFE052000F03AFE062000F037FE022000F034FEEE
S32508005100002000F031FE042000F02EFE33E0032000F01EFE062000F027FE072000F024FE4C
S32508005120052000F021FE002000F01EFE022000F01BFE012000F018FE042000F015FE1AE08E
S32508005140042000F01DFE032000F01AFE072000F017FE052000F014FE062000F011FE00204F
S3250800516000F00EFE012000F00BFE022000F008FE0520FFF78FFB134B1B68022B7FF4D2AB50
S32508005180114B1B78DBB2052BFAD100240E4B1C700E48FFF7CFFA0E48FFF742FA2346FEE499
S325080051a0F80100200000AA430000B44300008C420000E6420000204300004D4300007A433E
S325080051c00080934314020020F4010020FC010020DC010020034B1B681BB1024A1368013B66
S325080051e013607047100200200020704700207047FEE7FEE77047FEE7FEE7FEE7FEE77047CB
S325080052007047704708B5FFF7E5FF054A1368013B1360044A13780133DBB2137008BD00BF61
S3250800522004000020F401002008B5002000F0FAF8012800D008BD002000F0F0FD0028F9D0BC
S32508005240164B00221A6003E0144A136801331360124B1A68124B9A42F6D9002000F0DEFD0E
S325080052600028FAD10D4B00221A6003E00B4A136801331360094B1A68094B9A42F6D9094BB6
S325080052801A6801321A601B68022B02D9054B00221A60002000F0F8F8CCE700BF2C0200209A
S325080052a0FEFF07001402002008B501F07BFA08BD08B5002001F042FC122000F0E5F808BDEE
S325080052c038B5044603790BB1042B67D16379082B03D00C2B01D0102B65D12368232B67D877
S325080052e0A379012B69D8A379002B00F0828021684B0903F1007303F502635B01186801F070
S325080053001F01012202FA01F120EA01011960236823F01F054048295803F01F0302FA03F3F7
S3250800532021EA03032B502379216821F01F00034403F1804303F58233186801F01F0102FA46
S3250800534001F101431960236823F01F053348295803F01F0302FA03F321EA03032B502368B4
S3250800536023F01F050430295803F01F039A4021EA02022A506379102B24D0226822F01F01F4
S325080053800B4403F1804303F58233196802F01F02012000FA02F20A431A603CE09F2120489E
S325080053a0FFF726FF92E7A0211D48FFF721FF94E7A1211B48FFF71CFF92E7A2211848FFF7CC
S325080053c017FF90E7236823F01F050438295803F01F03012202FA03F30B432B50236823F022
S325080053e01F040430215803F01F039A400A43225011E02379226822F01F010B4403F18043D2
S3250800540003F58233196802F01F02012000FA02F221EA02021A6038BD04040140080401401A
S32508005420909B000810B50446162809D91D2807D01E2805D01F2803D0202801D0212814D164
S32508005440620902F1007303F502635B01196804F01F04012303FA04F421405201084BD358D1
S325080054601C4208D049B9002006E04FF499710548FFF7BEFEE4E7002010BD0120FCE700BF19
S3250800548014040140909B000810B50446162803D9A0F11D03042B08D804F01F0224F01F043D
S325080054a001239340044AA35010BD40F24B110348FFF79EFEF0E700BF14040140909B00084C
S325080054c010B50446012805D9052803D0EF210448FFF78EFE034B00221A701C7010BD00BFB8
S325080054e0E09B00080210024010B50446012804D940F2C9110248FFF77BFE024B1C6010BD57
S32508005500E09B00086000424210B50446022806D8064A536823F003031C43546010BD40F2C9
S32508005520AE210348FFF764FEF2E700BF00100240E09B0008024B586800F00C00704700BFFF
S32508005540001002402DE9F041A9494B6803F00C034A684968C2F38342023211F4803F0AD14D
S32508005560A44901FB02F2042B44D0082B45D06BB1A14B03600CE09E49C96A01F00F01013111
S325080055809D4CB4FBF1F102FB01F2ECE79A4B0360974D6B68C3F30313DFF860C21CF8036085
S325080055a0F6B2016821FA06F343606C68C4F302241CF80440E4B223FA04F484606F68C7F3EC
S325080055c0C2271CF80770FFB2FB40C360ED6A2D0905F00F0EDFF828C23CF81EC01FFA8CFC27
S325080055e015F0100F0BD0BCF1000F08D0B2FBFCF5056105E0804B0360CAE70260C8E70161CF
S325080056007B4DED6A6D0A05F01F0E05F00F08DFF8F0C13CF818C01FFA8CFC15F0100F06D089
S32508005620BCF1000F03D0B2FBFCF5456100E041616F4D2D6B15F0100F40F0A1806E4D85619D
S325080056406B4D2D6B15F0200F40F09B806A4DC561674D2D6B15F0400F40F09580664D056291
S32508005660634D2D6B15F4807F02D0914200F08D804362624D15F80E50EDB2DFF874C1DCF8EC
S3250800568030C01CF0807F02D0914200F084800463DFF85CC1DCF830C01CF0007F02D0914219
S325080056a000F081804463524D2D6B15F4805F01D091427ED083624E4D2D6B15F4007F01D0C2
S325080056c091427CD0C3624A4D2D6B15F4806F01D0914279D0C364464D2D6B15F4006F01D0C9
S325080056e0914276D00365424D2D6B15F4005F01D0914273D003653E4D2D6B15F4004F01D0F1
S32508005700914270D083653A4A126B12F0030F79D18363374B1B6B13F4403F40F08F80C46347
S32508005720334B1B6B13F4402F40F0A7800464304B1B6B13F4401F40F0BF8044642C4B1B6BA7
S3250800574013F4400F00F0D780294B1B6B03F44003B3F5800F00F0D280254B1B6B03F44003C1
S32508005760B3F5000F00F0CC80214B1B6B03F44003B3F5400F40F0C0801F4B8364BCE08161C6
S325080057805EE7C16164E701626AE7BE427FF470AF550045626DE7AE427FF479AF4FEA420CA1
S325080057a0C0F830C074E7AE427FF47CAF5500456379E7BE427FF47EAF550085627BE7BE42AF
S325080057c080D15500C5627EE7BE4283D15500C56481E7BE4286D15500056584E7BE4289D174
S325080057e05500456587E7BE428CD1520082658AE70010024000093D0000127A0028000020BB
S3250800580008000020404B1B6B03F00303012B0FD03D4B1B6B03F00303022B0BD03A4B1B6B23
S3250800582003F00303032B7FF474AF384B836370E781636EE74FF4004383636AE7324B1B6BE4
S3250800584003F44033B3F5803F11D02F4B1B6B03F44033B3F5003F0CD02B4B1B6B03F44033F5
S32508005860B3F5403F7FF45CAF284BC36358E7C16356E74FF40043C36352E7234B1B6B03F46C
S325080058804023B3F5802F11D01F4B1B6B03F44023B3F5002F0CD01C4B1B6B03F44023B3F573
S325080058a0402F7FF444AF194B036440E701643EE74FF4004303643AE7134B1B6B03F440134D
S325080058c0B3F5801F11D0104B1B6B03F44013B3F5001F0CD00C4B1B6B03F44013B3F5401F96
S325080058e07FF42CAF094B436428E7416426E74FF40043436422E78464BDE8F0818164FBE795
S325080059004FF400438364F7E70010024000127A0010B5044600285AD0B0F5807F57D0B0F57F
S32508005920887F54D0B0F5907F51D0B0F5987F4ED0B0F5A07F4BD0B0F5A87F48D0B0F5B07FE8
S3250800594045D0B0F5B87F42D0B0F5C07F3FD0B0F5C87F3CD0B0F5D07F39D0B0F5D87F36D04C
S32508005960B0F1805F33D0234B984230D003F5007398422CD003F50073984228D003F5007365
S32508005980984224D003F50073984220D003F5007398421CD003F50073984218D003F500732D
S325080059a0984214D003F50073984210D003F5007398420CD003F50073984208D003F500734D
S325080059c0984204D040F201510B48FFF711FC230F09D10A4AD36A23F4F873D362074AD36A4F
S325080059e01C43D46210BD054AD36A23F47853D362F4E700BF00200010E09B000800100240F5
S32508005a0010B5044668B110280BD0B0F1805F08D0154B984205D0B0F1005F02D0134B9842CC
S32508005a200AD1230F012B13D063B1022B16D0104A136B1C43146310BD40F222510D48FFF7AA
S32508005a40D7FBEEE70A4A136B23F010031363EEE7074A136B23F020031363E8E7044A136B38
S32508005a6023F040031363E2E7200000104000002000100240E09B000810B50446012804D909
S32508005a8040F2CF510248FFF7B3FB024B1C6010BDE09B0008D800424238B504460D460E4B60
S32508005aa0034003B920B940F245610C48FFF7A0FB012D06D85DB90A4A536923EA0404546147
S32508005ac038BD40F246610548FFF792FBF2E7044A53691C435461F3E788FF00CEE09B000871
S32508005ae00010024038B504460D460E4B034003B920B940F26B610C48FFF77AFB012D06D8C2
S32508005b005DB90A4A936923EA0404946138BD40F26C610548FFF76CFBF2E7044A93691C43E7
S32508005b209461F3E7FE07E8DFE09B00080010024038B504460D460E4B034003B920B940F2FA
S32508005b409A610C48FFF754FB012D06D85DB90A4AD36923EA0404D46138BD40F29B61054837
S32508005b60FFF746FBF2E7044AD3691C43D461F3E7C8370189E09B00080010024038B504467A
S32508005b800D460E4B034003B920B940F2E1610C48FFF72EFB012D06D85DB90A4AD36823EACE
S32508005ba00404D46038BD40F2E2610548FFF720FBF2E7044AD3681C43D460F3E7FE07E8DF38
S32508005bc0E09B00080010024038B504460D460E4B034003B920B940F20C710C48FFF708FB2B
S32508005be0012D06D85DB90A4A136923EA0404146138BD40F20D710548FFF7FAFAF2E7044A18
S32508005c0013691C431461F3E7C8370189E09B00080010024010B50446012817D0112815D0B1
S32508005c20192813D0212811D041280FD059280DD05A280BD05B2809D05C2807D05D2805D0F4
S32508005c405E2803D05F2801D09C280CD1630910D10F4B1B6804F01F0423FA04F414F0010F7A
S32508005c6014D1002010BD4FF4ED610A48FFF7C0FAECE7012B04D0042B05D0054B5B6AE9E7F5
S32508005c80034B1B6AE6E7024B5B68E3E70120E9E700100240E09B000800B583B00023019317
S32508005ca01120FFF7B7FF019B01330193019BB3F5A04F01D00028F3D01120FFF7ABFF18B904
S32508005cc0002003B05DF804FB0120FAE708B5074B074A136002221A72064B074A1360074AA4
S32508005ce0074911601B68984708BD00BFBC020020DC020020C8000020B4020020D80200205B
S32508005d002C01002010B582B0044601210D4B53F82000FFF7C1FE0C4B33F8143000930123D0
S32508005d208DF8043000228DF806208DF8073003238DF805306946054B53F8240001F0BAFE1C
S32508005d4002B010BD309C0008509C00083C000020034B53F82030034A32F810209A61704750
S32508005d603C000020509C0008034B53F82030034A32F810201A8570473C000020509C00088F
S32508005d80044B53F82020918A034B33F810304B40938270473C000020509C000830B587B084
S32508005da005460C4601214FF40030FFF775FE01210846FFF797FE00238DF814308DF8173087
S32508005dc006A9012341F8083D134B53F8250001F071FE012C01D007B030BD0021084602F033
S32508005de0FDFB002302938DF80C3008238DF80D308DF80E400DEB0300FFF762FA06238DF869
S32508005e0004300F238DF805308DF806308DF8074001A802F09BF9DEE73800002008B50121A2
S32508005e20024B53F8200001F0D7FE08BD380000202DE9F04788B001214FF48050FFF752FEB9
S32508005e4001214FF40030FFF727FE01214FF40010FFF722FE01214FF40010FFF71DFE012151
S32508005e604FF40010FFF718FE052211464FF0904001F07AFF052206214FF0904001F074FFFD
S32508005e80052207214FF0904001F06EFF4FF002088DF81C8000248DF81E408DF81F400327B9
S32508005ea08DF81D7008AD202345F8083D29464FF0904001F0FFFD8023069329464FF0904023
S32508005ec001F0F8FD4023069329464FF0904001F0F1FD2B4E304602F085F9ADF804404FF4EA
S32508005ee0E063ADF80830ADF80A40ADF80C404FF40073ADF80E301023ADF81030ADF81240EC
S32508005f000723ADF814304FF48273ADF8063001A9304602F0ABF94FF48051304602F0BCFA65
S32508005f200121304602F08CFA4FF0080ACDF818A04FF001098DF81C908DF81E408DF81D7006
S32508005f40104E2946304601F0B5FD5146304601F0A3FECDF818908DF81C408DF81E408DF8F8
S32508005f601D708DF81F402946304601F0A3FDCDF818802946304601F09DFD08B0BDE8F0878B
S32508005f80003001400010004810B50446164B4FF480521A600221154802F0E2FA48B9124A80
S32508005fa01368591E1160002BF4D1FFF71FF9C0B210BD21460D4802F099FA0B4B4FF4805287
S32508005fc01A600121094802F0CBFA48B9064A1368591E1160002BF4D1FFF708F9C0B2E7E734
S32508005fe0024802F09DFAE3E75C0000200030014070B505460E461446012A01D941F040066F
S3250800600008210A4801F07CFE3046FFF7BDFF05E015F8010BFFF7B8FF013CA4B2002CF7D132
S325080060200821024801F038FE70BD00BF0010004810B582B0044600238DF807308DF8063099
S32508006040FFF7F6FE21786078A278E37801430A4313439DF8072013438DF807302279617938
S32508006060A3790A4313439DF8062013438DF80630012220210DF10700FFF7BAFF0122232108
S325080060800DF10600FFF7B4FF02B010BD70B505461446012A09D941F0C00608210B4801F08B
S325080060a02FFE3046FFF770FF09E041F08006F4E70020FFF769FF05F8010B013CA4B2002C09
S325080060c0F6D10821014801F0E7FD70BD0010004810B582B00446012221210DF10700FFF77E
S325080060e0D5FF9DF8073003F0C003227861780A4313438DF80730012221210DF10700FFF70A
S3250800610077FF02B010BD10B582B00446012224210DF10700FFF7BAFF9DF8070000F0EF00A4
S3250800612020438DF80700012224210DF10700FFF75FFF02B010BD00002DE9F0438DB001217A
S325080061404FF40010FFF7F4FC01214FF48020FFF7A3FC01214FF40010FFF79EFC01214FF4F4
S325080061600010FFF799FC01214FF40010FFF794FC384F04220621384601F0F6FD04220721F7
S32508006180384601F0F1FD02268DF82C6000248DF82E408DF82F604FF003088DF82D800CADFB
S325080061a0402345F8083D2946384601F083FC80230A932946384601F07DFC8DF82C408DF882
S325080061c02E408DF82F408DF82D804FF00409CDF8289007F540672946384601F06BFC3146F5
S325080061e0484602F0FBF908968DF8244008238DF825304FF001098DF8269008A8FFF760F80F
S325080062000494029403940594069407940CA9124B41F82C3D114E304601F0F6FD494630466B
S3250800622001F06EFE10230A938DF82C408DF82E408DF82D808DF82F402946384601F03AFC05
S3250800624020230A932946384601F034FC0DB0BDE8F08300BF000400482520900000540040F9
S3250800626070B582B006460D461446414B4FF420421A604FF400413F4801F0E4FE50B13C4AB0
S325080062801368581E1060002BF3D1FEF7ADFF80B202B070BDB6B24FF4005300934FF080732B
S325080062a001223146334801F051FE314B4FF420421A6002212F4801F0C5FE48B92C4A1368A0
S325080062c0591E1160002BF4D1FEF78EFF80B2DFE72946284801F08AFE254B4FF420421A6077
S325080062e08021244801F0AEFE48B9214A1368591E1160002BF4D1FEF777FF80B2C8E70023B8
S3250800630000934FF00073012231461A4801F01EFE174B4FF420421A600221164801F092FE9E
S3250800632048B9134A1368591E1160002BF4D1FEF75BFF80B2ACE721780E4801F057FE0C4BFE
S325080063404FF420421A6020210A4801F07BFE48B9074A1368591E1160002BF4D1FEF744FF36
S3250800636080B295E72021034801F0B0FE00208FE7600000200054004010B582B00446002328
S325080063808DF807308DF80630FFF7D6FE22786178A3780A4313439DF8072013438DF80730AF
S325080063a021796079A279E37801430A4313439DF8062013438DF806300DF107022021322099
S325080063c0FFF74EFF0DF1060223213220FFF748FF02B010BD30B583B0054600248DF80740C1
S325080063e08DF806408DF80540FFF7A6FE2B786A7813439DF8072013438DF80730EB789DF8BF
S32508006400062013438DF80630AB789DF8052013438DF805300DF1070221463C20FFF720FF6B
S325080064200DF1060201213C20FFF71AFF0DF1050202213C20FFF714FF03B030BDF0B583B0B6
S3250800644007460D4616461C46454B4FF420421A604FF40041434801F0F5FD50B1404A136829
S32508006460581E1060002BF3D1FEF7BEFE80B203B0F0BDBFB24FF40053009300230122394697
S32508006480384801F063FD364B4FF420421A600221344801F0D7FD48B9314A1368591E11603A
S325080064a0002BF4D1FEF7A0FE80B2E0E7012C01D945F0800529462B4801F098FD284B4FF473
S325080064c020421A604021274801F0BCFD48B9244A1368591E1160002BF4D1FEF785FE80B2EC
S325080064e0C5E74FF4105300934FF00073E2B239461C4801F02BFDD4B1194B4FF420421A605F
S325080065000421184801F09EFD48B9154A1368591E1160002BF4D1FEF767FE80B2A7E7114836
S3250800652001F07AFD06F8010B013CA4B2E3E70C4B4FF420421A6020210A4801F083FD48B903
